:100000000C9462000C948A000C948A000C94750382
:100010000C9475030C9475030C948A000C948A005C
:100020000C948A000C948A000C948A000C948A0028
:100030000C948A000C948A000C948A000C948A0018
:100040000C942B030C948A000C94F9020C94D302A8
:100050000C948A000C948A000C948A000C948A00F8
:100060000C948A000C948A000000000024002700F1
:100070002A0000000000250028002B0000000000DE
:1000800023002600290004040404040404040202DA
:100090000202020203030303030301020408102007
:1000A0004080010204081020010204081020000012
:1000B0000008000201000003040700000000000027
:1000C0000000600411241FBECFEFD8E0DEBFCDBF1B
:1000D00011E0A0E0B1E0EAE2F9E002C005900D9283
:1000E000A43AB107D9F722E0A4EAB1E001C01D9219
:1000F000AC34B207E1F710E0C2E6D0E004C02197CB
:10010000FE010E948D04C136D107C9F70E947F030A
:100110000C9493040C940000AF92BF92CF92DF92A4
:10012000EF92FF920F931F93CF93DF936C017B01AC
:100130008B01040F151FEB015E01AE18BF08C0173D
:10014000D10759F06991D601ED91FC910190F081B0
:10015000E02DC6010995892B79F7C501DF91CF9173
:100160001F910F91FF90EF90DF90CF90BF90AF90D5
:100170000895FC01538D448D252F30E0842F90E0AD
:10018000821B930B541710F0CF9608950197089592
:10019000FC01918D828D981761F0A28DAE0FBF2F5B
:1001A000B11D5D968C91928D9F5F9F73928F90E0B1
:1001B00008958FEF9FEF0895FC01918D828D981720
:1001C00031F0828DE80FF11D858D90E008958FEF5D
:1001D0009FEF0895FC01918D228D892F90E0805C26
:1001E0009F4F821B91098F73992708958FEA91E0A1
:1001F0000E94EA0021E0892B09F420E0822F089573
:1002000080E090E0892B29F00E94F60081110C9487
:1002100000000895FC01A48DA80FB92FB11DA35AA9
:10022000BF4F2C91848D90E001968F739927848F16
:10023000A689B7892C93A089B1898C918370806439
:100240008C93938D848D981306C00288F389E02DDA
:1002500080818F7D80830895EF92FF920F931F938B
:10026000CF93DF93EC0181E0888F9B8D8C8D981369
:100270001AC0E889F989808185FF15C09FB7F89475
:10028000EE89FF896083E889F989808183708064C1
:1002900080839FBF81E090E0DF91CF911F910F910C
:1002A000FF90EF900895F62E0B8D10E00F5F1F4F1B
:1002B0000F731127E02E8C8D8E110CC00FB607FC2A
:1002C000FACFE889F989808185FFF5CFCE010E94B8
:1002D0000A01F1CFEB8DEC0FFD2FF11DE35AFF4F1B
:1002E000F0829FB7F8940B8FEA89FB898081806246
:1002F000CFCFCF93DF93EC01888D8823B9F0AA8903
:10030000BB89E889F9898C9185FD03C0808186FDD0
:100310000DC00FB607FCF7CF8C9185FFF2CF80811F
:1003200085FFEDCFCE010E940A01E9CFDF91CF9189
:100330000895833081F028F4813099F08230A9F05B
:1003400008958730A9F08830C9F08430B1F48091E5
:1003500080008F7D03C0809180008F778093800024
:10036000089584B58F7784BD089584B58F7DFBCFC4
:100370008091B0008F778093B00008958091B00095
:100380008F7DF9CFCF93DF93282F30E0F901E2552D
:10039000FF4F8491F901E656FF4FD491F901EA57D6
:1003A000FF4FC491CC23A1F081110E949901EC2F41
:1003B000F0E0EE0FFF1FE458FF4FA591B491EC91D0
:1003C000ED2381E090E009F480E0DF91CF91089582
:1003D00080E090E0FACF1F93CF93DF93282F30E097
:1003E000F901E255FF4F8491F901E656FF4FD49190
:1003F000F901EA57FF4FC491CC23A9F0162F8111C0
:100400000E949901EC2FF0E0EE0FFF1FEE58FF4F16
:10041000A591B4918FB7F894EC91111108C0D095C3
:10042000DE23DC938FBFDF91CF911F910895DE2BE8
:10043000F8CFCF93DF9390E0FC01E656FF4F249175
:100440008A579F4FFC0184918823D1F090E0880F58
:10045000991FFC01E859FF4FA591B491FC01EE589A
:10046000FF4FC591D49161110EC09FB7F8948C9144
:10047000E22FE0958E238C932881E223E8839FBFAF
:10048000DF91CF9108958FB7F894EC91E22BEC9324
:100490008FBFF6CF8E3008F08E50877080648093C7
:1004A0007C0080917A00806480937A0080917A0049
:1004B00086FDFCCF809178009091790008953FB738
:1004C000F8948091AB019091AC01A091AD01B091F5
:1004D000AE0126B5A89B05C02F3F19F00196A11DBE
:1004E000B11D3FBFBA2FA92F982F8827BC01CD017E
:1004F000620F711D811D911D42E0660F771F881FDD
:10050000991F4A95D1F708958F929F92AF92BF920B
:10051000CF92DF92EF92FF924B015C010E945F024B
:100520006B017C010E945F026C197D098E099F0995
:10053000683E734081059105A8F321E0821A910875
:10054000A108B10888EEC80E83E0D81EE11CF11C9A
:1005500081149104A104B10429F7FF90EF90DF907A
:10056000CF90BF90AF909F908F900895CF93DF93DF
:10057000FC0101900020E9F73197AF01481B590BAE
:10058000BC018FEA91E00E948C00EC0142E050E057
:1005900062E171E08FEA91E00E948C008C0F9D1F58
:1005A000DF91CF9108951F920F920FB60F921124F1
:1005B0002F933F934F935F936F937F938F939F936B
:1005C000AF93BF93EF93FF938FEA91E00E940A01EC
:1005D000FF91EF91BF91AF919F918F917F916F911B
:1005E0005F914F913F912F910F900FBE0F901F90F1
:1005F00018951F920F920FB60F9211242F938F937D
:100600009F93EF93FF93E091BF01F091C001808130
:10061000E091C501F091C60182FD1BC090818091DF
:10062000C8018F5F8F732091C901821741F0E0915B
:10063000C801F0E0E155FE4F958F8093C801FF910E
:10064000EF919F918F912F910F900FBE0F901F9060
:1006500018958081F4CF1F920F920FB60F9211243C
:100660002F933F938F939F93AF93BF938091A70155
:100670009091A801A091A901B091AA013091A60181
:1006800023E0230F2D3758F50196A11DB11D2093AE
:10069000A6018093A7019093A801A093A901B0930C
:1006A000AA018091AB019091AC01A091AD01B091F4
:1006B000AE010196A11DB11D8093AB019093AC01D9
:1006C000A093AD01B093AE01BF91AF919F918F9177
:1006D0003F912F910F900FBE0F901F90189526E815
:1006E000230F0296A11DB11DD2CF1F920F920FB6FC
:1006F0000F9211240F900FBE0F901F9018957894B1
:1007000084B5826084BD84B5816084BD85B5826016
:1007100085BD85B5816085BD80916E0081608093C7
:100720006E00109281008091810082608093810030
:100730008091810081608093810080918000816040
:10074000809380008091B10084608093B10080919B
:10075000B00081608093B00080917A0084608093C3
:100760007A0080917A00826080937A0080917A008A
:10077000816080937A0080917A00806880937A000B
:100780001092C10060E08EE00E94190260E08FE0EC
:100790000E94190260E084E00E94190260E082E099
:1007A0000E94190261E083E00E941902E091BF01FA
:1007B000F091C00182E08083E091BB01F091BC0127
:1007C0001082E091BD01F091BE018FEC8083109208
:1007D000C701E091C301F091C40186E08083E091FC
:1007E000C101F091C201808180618083E091C101EB
:1007F000F091C201808188608083E091C101F09115
:10080000C201808180688083E091C101F091C201C2
:1008100080818F7D8083C0E0D0E08EE00E944A021C
:10082000893C910524F085E191E00E94B60268EED2
:1008300073E080E090E00E9484028FE00E944A0210
:10084000893C910524F08FE291E00E94B60268EEA7
:1008500073E080E090E00E94840284E00E94C20184
:100860001816190624F481E791E00E94B60268EE9A
:1008700073E080E090E00E94840282E00E94C20166
:100880000197C9F461E083E00E94EB018CE891E0FC
:100890000E94B60260E177E280E090E00E9484026C
:1008A000209709F4BACF0E94F600882309F4B5CF47
:1008B0000E940000B2CF60E083E00E94EB01EACF2B
:1008C000EFEAF1E01382128288EE93E0A0E0B0E05C
:1008D00084839583A683B78384E091E091838083AA
:1008E00085EC90E09587848784EC90E097878687F5
:1008F00080EC90E0918B808B81EC90E0938B828BED
:1009000082EC90E0958B848B86EC90E0978B868BC5
:10091000118E128E138E148E0895EE0FFF1F059008
:0A092000F491E02D0994F894FFCF44
:10092A00000000002C018C00B9007901EA00C8001F
:10093A00DC000D0A00536D6F6B652061726F756E76
:10094A006420796F75206465746563746564004812
:10095A006967682054656D70657261747572652087
:10096A0061726F756E6420796F7520646574656352
:10097A007465642E20536F6D657468696E67206DA7
:10098A0069676874206265206275726E696E672E87
:10099A0000536F6D657468696E6720696E206672B0
:1009AA006F6E74206F6620796F752E0050697420FF
:1009BA006F72206D756420696E20796F7572207769
:0409CA0061792E0021
:00000001FF
